[
{
  "hash": "000000000007a88bce05bdbaf6866fe783aa6f3ca506847adb5228a99172195c",
  "confirmations": 356931,
  "strippedsize": 752,
  "size": 752,
  "weight": 3008,
  "height": 151182,
  "version": 2,
  "versionHex": "00000002",
  "merkleroot": "6a3202aa744496c316b4ff78762da556667edf9372bf1cd86c4c7fa319c7ed57",
  "tx": [
    {
      "txid": "5bcf4aaea160fa8e7f58d80006a0f929f7b0a7aeaf259c3f19a7e3b851edc9b6",
      "hash": "5bcf4aaea160fa8e7f58d80006a0f929f7b0a7aeaf259c3f19a7e3b851edc9b6",
      "version": 1,
      "size": 148,
      "vsize": 148,
      "weight": 592,
      "locktime": 0,
      "vin": [
        {
          "coinbase": "038e4e020652a2069f1001fabe6d6d3de3b29b44ca05e9c904fd897b6753fd4e4daa8024a6724145cd496f9fce8531010000000000000000000000590a0000",
          "sequence": 4294967295
        }
      ],
      "vout": [
        {
          "value": 50.00010000,
          "n": 0,
          "scriptPubKey": {
            "asm": "OP_DUP OP_HASH160 0e1916023fb975586e323269b96aa7e0c0487c67 OP_EQUALVERIFY OP_CHECKSIG",
            "hex": "76a9140e1916023fb975586e323269b96aa7e0c0487c6788ac",
            "reqSigs": 1,
            "type": "pubkeyhash",
            "addresses": [
              "mgoVok5URWxUAHfndCjh97aEEPXtFkVPzL"
            ]
          }
        }
      ],
      "hex": "01000000010000000000000000000000000000000000000000000000000000000000000000ffffffff3f038e4e020652a2069f1001fabe6d6d3de3b29b44ca05e9c904fd897b6753fd4e4daa8024a6724145cd496f9fce8531010000000000000000000000590a0000ffffffff011019062a010000001976a9140e1916023fb975586e323269b96aa7e0c0487c6788ac00000000"
    },
    {
      "txid": "4f3d7dc5feadf7011ade0fe511387af012cafeecd27d04c9c527e1a38ac9fc72",
      "hash": "4f3d7dc5feadf7011ade0fe511387af012cafeecd27d04c9c527e1a38ac9fc72",
      "version": 1,
      "size": 523,
      "vsize": 523,
      "weight": 2092,
      "locktime": 0,
      "vin": [
        {
          "txid": "9d230c7c30f2d242d63e5eebc9b25d74b1cdc3f0f235ccbabc3912ff73562e8f",
          "vout": 0,
          "scriptSig": {
            "asm": "3045022100a2941c82ffaded9cb3d7fe5bee881adf0521a357dd5bc688388e9ca300a689cb022046c4c7fe8e36d0dba25debd3d51c92be163e5765993170ea84532b1b6f57f771[ALL] 02096cb2e671e2f16de93bfb294e7647dd740e92c0a9137c37381d5dfc201766c2",
            "hex": "483045022100a2941c82ffaded9cb3d7fe5bee881adf0521a357dd5bc688388e9ca300a689cb022046c4c7fe8e36d0dba25debd3d51c92be163e5765993170ea84532b1b6f57f771012102096cb2e671e2f16de93bfb294e7647dd740e92c0a9137c37381d5dfc201766c2"
          },
          "sequence": 4294967295
        },
        {
          "txid": "a01356aec57ac5058e801e8f5fabb910dd901564639ea8681a3afc6c89533d30",
          "vout": 0,
          "scriptSig": {
            "asm": "30450220536c4c751b58c8cfb54f66ab99a22b704d9641ed9ee043bd7e8a33dc94c6846c022100a834db0e1007b008339397d65c1657f6e6f6e76d0ca97e3a797d53d3920f9605[ALL] 0246fa3eac034efe6c0131a2b4e61ab64201d8d567e93cae6806c8ea02e4a0bf76",
            "hex": "4830450220536c4c751b58c8cfb54f66ab99a22b704d9641ed9ee043bd7e8a33dc94c6846c022100a834db0e1007b008339397d65c1657f6e6f6e76d0ca97e3a797d53d3920f960501210246fa3eac034efe6c0131a2b4e61ab64201d8d567e93cae6806c8ea02e4a0bf76"
          },
          "sequence": 4294967295
        },
        {
          "txid": "bbcc54d89f25c9cd6cf26fc8f5c93d56b2bad4f0947633f3e8841b5a3e7117ad",
          "vout": 0,
          "scriptSig": {
            "asm": "3046022100a850fec90f53aba4a1fbaeaaa91a3ad36dfd7452c79e34cead1f4a234a213fa1022100a5c90c6f812962b7de93a392f26c96bfccf923637abbc162401d4231098303a8[ALL] 0212d58d039e34e6d63bfeedbf198e6725107a39fd84776dc9f7c59818fd14d171",
            "hex": "493046022100a850fec90f53aba4a1fbaeaaa91a3ad36dfd7452c79e34cead1f4a234a213fa1022100a5c90c6f812962b7de93a392f26c96bfccf923637abbc162401d4231098303a801210212d58d039e34e6d63bfeedbf198e6725107a39fd84776dc9f7c59818fd14d171"
          },
          "sequence": 4294967295
        }
      ],
      "vout": [
        {
          "value": 0.01134017,
          "n": 0,
          "scriptPubKey": {
            "asm": "OP_DUP OP_HASH160 15b9649bc0de9d47eee0d2d32740f18bebeaf1f5 OP_EQUALVERIFY OP_CHECKSIG",
            "hex": "76a91415b9649bc0de9d47eee0d2d32740f18bebeaf1f588ac",
            "reqSigs": 1,
            "type": "pubkeyhash",
            "addresses": [
              "mhVpaQy59asux5uy88XEAXKAJ13wzXmm9Y"
            ]
          }
        },
        {
          "value": 0.02000000,
          "n": 1,
          "scriptPubKey": {
            "asm": "OP_DUP OP_HASH160 09cd4d1fc8fcb00f976538bc56c8d616796810ff OP_EQUALVERIFY OP_CHECKSIG",
            "hex": "76a91409cd4d1fc8fcb00f976538bc56c8d616796810ff88ac",
            "reqSigs": 1,
            "type": "pubkeyhash",
            "addresses": [
              "mgQnKMysJokhb5x7u3ASjTaxsurqTH4obp"
            ]
          }
        }
      ],
      "hex": "01000000038f2e5673ff1239bcbacc35f2f0c3cdb1745db2c9eb5e3ed642d2f2307c0c239d000000006b483045022100a2941c82ffaded9cb3d7fe5bee881adf0521a357dd5bc688388e9ca300a689cb022046c4c7fe8e36d0dba25debd3d51c92be163e5765993170ea84532b1b6f57f771012102096cb2e671e2f16de93bfb294e7647dd740e92c0a9137c37381d5dfc201766c2ffffffff303d53896cfc3a1a68a89e63641590dd10b9ab5f8f1e808e05c57ac5ae5613a0000000006b4830450220536c4c751b58c8cfb54f66ab99a22b704d9641ed9ee043bd7e8a33dc94c6846c022100a834db0e1007b008339397d65c1657f6e6f6e76d0ca97e3a797d53d3920f960501210246fa3eac034efe6c0131a2b4e61ab64201d8d567e93cae6806c8ea02e4a0bf76ffffffffad17713e5a1b84e8f3337694f0d4bab2563dc9f5c86ff26ccdc9259fd854ccbb000000006c493046022100a850fec90f53aba4a1fbaeaaa91a3ad36dfd7452c79e34cead1f4a234a213fa1022100a5c90c6f812962b7de93a392f26c96bfccf923637abbc162401d4231098303a801210212d58d039e34e6d63bfeedbf198e6725107a39fd84776dc9f7c59818fd14d171ffffffff02c14d1100000000001976a91415b9649bc0de9d47eee0d2d32740f18bebeaf1f588ac80841e00000000001976a91409cd4d1fc8fcb00f976538bc56c8d616796810ff88ac00000000"
    }
  ],
  "time": 1386350272,
  "mediantime": 1386350112,
  "nonce": 3493417832,
  "bits": "1b24a835",
  "difficulty": 1787.786644532848,
  "chainwork": "000000000000000000000000000000000000000000000000029f50b4dd41ff47",
  "nTx": 2,
  "previousblockhash": "0000000000075f49a92a6e4f302a01f11bbe9ca6e9be3deb6d8fbd8f73630197",
  "nextblockhash": "000000000001ed2ae5c56f9aba173084352fd79f48392daf3cdcab904ff049cc"
}
]
