[
["The following are deserialized transactions which are valid."],
["They are in the form"],
["[[[prevout hash, amount, prevout scriptPubKey, redeem script], [input 2], ...],"],
["[[[transaction hash, serialized transaction hex]"],
["witness"],
["test name"],

["txtest#0"],
[
    [
        [
            "d98d5f0457462fe5a38ca2d2ac7adebebf4de079d0806342f6a97024a2f3dd1f",
            1504178262,
            "76a914b7f422b93fbad0dc02d227516b7909c00d685ab688ac",
            ""
        ]
    ],
    [
        [
            "b4eb98b535f773f19fd98940ef172049aa861df20a75785653cdff26a6d84d04",
            "02000000011fddf3a22470a9f6426380d079e04dbfbede7aacd2a28ca3e52f4657045f8dd9010000006b483045022100ea7ae30438804103b2f2d1f5307d1a48cc33f8c0928ad4ee11c325c9a4a88c4c022065f17896ecdd4fec2b8152a2e6144627cf169115b4ca609fc2597c78638059ce01210356aa087d4e6de1f654094279aca4c7941185f14d5c2b419e9360fb35a90741f6feffffff02f2fac555000000001976a914627712cc1b5f971ca0aed908be687c999f128aa288ac40d2df03000000001976a9145a927ddadc0ef3ae4501d0d9872b57c9584b9d8888ac4c211500"
        ]
    ],
    false,
    "p2pkh.pay.to.p2pkh"
],

["txtest#1"],
[
    [
        [
            "b470aab9f18259b71fc7cb930929bedb6f6a15f7447219e7216db9a42c782984",
            129995000,
            "76a9145a927ddadc0ef3ae4501d0d9872b57c9584b9d8888ac",
            ""
        ]
    ],
    [
        [
            "5af1520f1d3e818fca695c2a903baa4a7eec4954f0b35aa01be1f2c1d2cfd802",
            "01000000018429782ca4b96d21e7197244f7156a6fdbbe290993cbc71fb75982f1b9aa70b4000000006b48304502210095ca08ca516f94a70aacb06dfe3fc0fafe58ed70c773f988c1bc7a4b64e0911f02202909dfa5c52a28254d7427db5ac4123cf93f0004930b4ffcf7d0bb2a631c033a012103d54d0eca57b6afa2583a4ddbd61d4c40e0fd9db8be040ee1f275b5c9129e1e55ffffffff02707dbf07000000001976a9145a927ddadc0ef3ae4501d0d9872b57c9584b9d8888aca00f00000000000017a914210a461ced66d7540ad2f4649b49dbed7c9fcc288700000000"
        ]
    ],
    false,
    "funding.multisig.script.hash.from.p2pkh"
],

["txtest#2"],
[
    [
        [
            "5af1520f1d3e818fca695c2a903baa4a7eec4954f0b35aa01be1f2c1d2cfd802",
            4000,
            "a914210a461ced66d7540ad2f4649b49dbed7c9fcc2887",
            "522102a1429f9f78115ccebaf9ba109cba1e1ea9d616d5a17477769350a9c9338b262621025594b955543d02ae5f38e5241aabfc0912e7d121d157e517910f50d4ef017a382102f6fc7ced92210b705c7d20795a08a1dadc38bf8214dcdb7950c460eacd76d41153ae"
        ]
    ],
    [
        [
            "5e9cbdc13f93761a99f5d039a7dbc91439bcd54d38242565bbd3241a8ec6c2dd",
            "010000000102d8cfd2c1f2e11ba05ab3f05449ec7e4aaa3b902a5c69ca8f813e1d0f52f15a01000000fdfd00004730440220437c8b7ca78ddb5aa20b3119457ef45334a7023120fa61e0b67920d5e3ea2bb7022044fc826b61656f52a9f9c7cd4df81d59c97bc438c6f95adfa74b74950cfc9dcc01483045022100b4d5dfc768caf8a456c290ef3c9f17068e0bcb64e6ac80788de759393c8c08fb02203c4541580c8c8cc6471e368b465e9d28a85396bc82addd1941379bb10c70bcf4014c69522102a1429f9f78115ccebaf9ba109cba1e1ea9d616d5a17477769350a9c9338b262621025594b955543d02ae5f38e5241aabfc0912e7d121d157e517910f50d4ef017a382102f6fc7ced92210b705c7d20795a08a1dadc38bf8214dcdb7950c460eacd76d41153aeffffffff02d0070000000000001976a9145a927ddadc0ef3ae4501d0d9872b57c9584b9d8888ace8030000000000001976a9145a927ddadc0ef3ae4501d0d9872b57c9584b9d8888ac00000000"
        ]
    ],
    false,
    "spending.multisig.script.hash.to.p2pkh"
],

["txtest#3"],
[
    [
        [
            "c37c3154ae611cfd9a57e684f0c12d51491d09060c643adc292565884e947b2b",
            666666,
            "00148b7f2212ecc4384abcf1df3fc5783e9c2a24d5a5",
            ""
        ]
    ],
    [
        [
            "80cd5fca2589cd97d3da1119214ed339d5284ce068e22f1eb9f32ee99a17d4bf",
            "010000000001012b7b944e88652529dc3a640c06091d49512dc1f084e6579afd1c61ae54317cc30000000000ffffffff026a040100000000001976a9145a927ddadc0ef3ae4501d0d9872b57c9584b9d8888ac64240900000000001600148b7f2212ecc4384abcf1df3fc5783e9c2a24d5a50246304302202b83c7e94251d330b014c85474db5fcf4a06204f8259de3631e72f79bfa35f07021f622e5b620bd400e644e7a0dadeedaccc9dc75c30a1dc160b1379df45d6f7cf012102f363c6fb1d71521494da679059a98479d52f7166b941514248a2bfe9bba7317300000000"
        ]
    ],
    true,
    "spending.p2wpkh.to.p2pkh&p2wpkh"
],


["Make diffs cleaner by leaving a comment here without comma at the end"]
]
